:020000040800F2
:10000000B01C0020D500000841D1000805A300085D
:1000100000000000000000000000000000000000E0
:10002000000000000000000000000000DB100108DC
:10003000000000000000000035E50008F947010855
:10004000E7000008E700000869F00008E700000882
:10005000E7000008ED4A0008FD4A00080D4B0008C3
:10006000E7000008E7000008E7000008C9370008BB
:10007000E7000008E7000008E7000008E7000008C4
:10008000F5480108E7000008E7000008000000004C
:10009000ED480108E7000008E7000008E700000855
:1000A000E7000008E7000008E7000008E95401083D
:1000B000E700000861F0000800000000E700000809
:1000C0000348854600F086FF00480047698F010815
:1000D000B01C00200448804704480047FEE7FEE7C4
:1000E000FEE7FEE7FEE7FEE79D480108C1000008C5
:1000F000F0B51FB40646002082B0054640240191A9
:1001000000901BE0019922460F46304600F03EFD6C
:10011000049A059B801A994110D31046194622462D
:1001200000F024FD361A8F4101972246012000215C
:10013000009F00F01BFD38184D4100902046641EC2
:100140000028DFDC019B00982946324607B0F0BD4D
:1001500030B5434351435C18010C130C0D465D430D
:100160002C1980B292B20546554351430A0C09043A
:100170004D1962415843010C00044019514130BDF2
:1001800003460B439B0703D009E008C9121F08C0B0
:10019000042AFAD203E00B780370401C491C521E5B
:1001A000F9D27047D2B201E00270401C491EFBD266
:1001B00070470022F6E710B513460A460446194672
:1001C000FFF7F0FF204610BD421C0178401C0029BB
:1001D000FBD1801A704710B5002200E0521C835CEE
:1001E0008C5CA34201D1002BF8D1D8B2E1B2401A05
:1001F00010BD30B505460020034600E05B1C93426D
:1002000005D2EC5CC85C201A01D1002CF6D130BDBF
:100210000FB400B58DB009900B9010A9002000918B
:10022000C0430A9000200C900648069006480790AC
:100230006A4609A80F9900F0E3FC0DB008BC04B0B1
:1002400018470000210C0008410C0008FFB50027EA
:10025000FF4383B000205C6801909E681D46A96939
:100260007F1C049888470090296A88470028F6D1A7
:100270000098401C0CD0032040028443002E19DD5E
:10028000600614D500982B2809D02D280FD103E043
:100290000020C04307B0F0BD012080020443A969DB
:1002A0007F1C04988847761E0090002E02DD00987F
:1002B000302803D00598002825D035E001204002E1
:1002C0000443A969761E7F1C049888470090002E7D
:1002D00003DD782805D0582803D00598002810D0D1
:1002E00022E00598002801D010281DD101204002ED
:1002F0008443A969761E7F1C0498884700901020CB
:1003000002E0082000E00A2005900DE001214902EA
:100310000C43059A0199761E514308180190A9696A
:100320007F1C049888470090002E05DD05990098F1
:1003300000F050FC0028E9DAE96904988847A00534
:1003400002D40120C043A5E7E00722D1600611D501
:100350006005019800D5404229680A1D2A60096895
:10036000220501D5087014E0220701D5088010E0AD
:1003700008600EE02868011D29600068210502D58B
:100380000199017005E02107019901D5018000E084
:10039000016038467EE770B506461AF0D5FD046860
:1003A00005460A220021304600F0B6FC2C6070BDE4
:1003B000F8B502464A40D40F42004B0052085B0891
:1003C0009A4202D20246084611464A0023D0C30D83
:1003D0004A00DDB2120EAD1A202D35DA490201268F
:1003E000490AF6058A19002C00D0524220214F1BE1
:1003F0001146B9402A411018C20D9A4221D0002C52
:1004000017D0012D08DCDA05801AD20F8019D20727
:10041000DBB200F0C1FCF8BDDA05801A0123400010
:100420001B06C01880185A428018CA0F1043490092
:1004300007E04908C2071143DA05801A801940080D
:10044000801800F0A1FCF8BD61000122511A001BC8
:10045000F7E70122D2075140AAE70122D207504014
:10046000A6E7024670B54A40D30FDB0740002DD007
:100470004A002AD0010E140E000212020919400A85
:10048000520A8418E50104465443000A120A2E0455
:100490005043A4194219200CC543AA18120C012577
:1004A000AD03521C521912047F39240400D0521C8F
:1004B000104301D44000491EC2B20C06C0092018E6
:1004C000401C4008802A02D003E0002070BD400894
:1004D0004000002900DA0020184370BD70B50246C4
:1004E0004A40D50F40004A00ED0740085208002856
:1004F00014D0002A12D0C40DD30D41020120C00532
:100500005202490A520AE41A091812187D3491421B
:1005100001D3641C00E04900002C01DA002070BD0A
:100520000023914201D3891A03434008490000285F
:10053000F7D100290AD0914202D10121C90705E073
:10054000914201D2012101E00121C943E005C01817
:10055000401900F019FC70BDF0B507460846584038
:1005600087B0C00F049048000E4659004008490863
:10057000BC1A884105D2384631461E4617460B46FE
:1005800002465800400810434CD0300D03904005FF
:100590005900400D490D0590401A0290402872DA2A
:1005A00018030121000B09050843019004980092EB
:1005B000002805D001995242002088410092019004
:1005C000029840210A1A0199009800F0CFFA0546D6
:1005D0000C466B4607CB00F0EAFAC0197141039A4A
:1005E0000E0D0023D71756401A467A40164344D0C2
:1005F000049A002A2DD0029A012A039A15DC1205CA
:10060000C01A914101263605001C7141D20F059E8A
:10061000D2070093019202962A46234600F002FC7C
:1006200007B0F0BD38463146FAE71605224A0F46B4
:10063000B218C01AB74101210905001C4F4100182A
:100640007F41114618187941E20F10436D1964413A
:1006500013E0E2076D0815436408C2071443039AC8
:1006600001261205C01A91413605001C7141CE07C2
:10067000400830434908C01851412A46234600F03B
:10068000C4FBCDE7FFE7049801224000C117121A0E
:1006900000238B4104983146C417381AA141EEE774
:1006A00030B40124E407634030BC55E730B4012482
:1006B000E407614030BC4FE70000E0FFF0B51FB435
:1006C00088B00B990998002448400999C00F490047
:1006D00049080991C0070B990090490049080B91FE
:1006E00009990898A64608431CD00B990A98084314
:1006F00018D0099801244000420D4800410D099886
:1007000024050003000B204309900B980003000B05
:1007100020430B9050181C494018002201901446A9
:10072000104605E0002001460DB0F0BD032801DAB7
:10073000034600E003239C46C11A0AAE0AE05F00AC
:1007400008ADED5B4F00F75B7D430027AA187C41A5
:10075000491C5B1E6145F2DD410004AB5A52210485
:10076000120C0A43240C401C0828DFDB019802907D
:100770000099704601910090059B049A079906988C
:1007800000F050FBD0E700000DFCFFFFF0B50C4679
:100790005C4085B0E40FE40703944C000026640835
:1007A00059009446490802460296224321D06246E7
:1007B0000A431ED06200570D4A000E032303550D55
:1007C000012402462C492405781B1B0B360B4018CC
:1007D00023432643614600901C46501AB44103D37C
:1007E0000098401C009002E0921800985B4100289D
:1007F00003DA0020014605B0F0BD00200121090503
:100800000746864611E064461D46141BB54106D3D3
:100810006546521BB341744607430C43A646CD07B9
:1008200040084908284392185B4105460D43EAD128
:100830001046184313D06046194650407140084393
:1008400006D06046101AB34106D20122002306E00A
:1008500000220123DB0702E00122D243531000985B
:1008600074460105381C6141029C039D00196941D1
:1008700000F0CBFABFE70000FD0300000122D20721
:10088000002800DB101A002900DB511A814201D830
:1008900001207047002070470122D207002800DBAA
:1008A000101A002900DB511A814201D20120704741
:1008B000002070470122D207002800DB101A00290F
:1008C00000DB511A814201D301207047002070479C
:1008D0000122D207002800DB101A002900DB511A80
:1008E000814201D901207047002070470122D207C0
:1008F000002800DB101A002900DB511A814201D1C7
:10090000012070470020704710B5002904DB0C4619
:100910000121C9074042A141002B04DB1C460123F1
:10092000DB075242A341801A994101D2012010BD38
:10093000002010BDC217C10F504010B54018CA07A3
:100940009623002100F028FA10BD10B5002296234E
:10095000114600F021FA10BD0EB5C217C10F50406C
:10096000CA0740180021054B0293019200910A46E4
:100970000B4600F057FA03B000BD0000330400003E
:100980000EB505490291002100910A460B460191DE
:1009900000F048FA03B000BD33040000C20F41006C
:1009A00040020123400ADB05D207090EC0187F2947
:1009B00001DA00207047962903DC9623591AC840B3
:1009C00001E096398840002AF4D040427047410047
:1009D00040020122400AD205090E80187F2901DA5F
:1009E00000207047962903DC9622511AC8407047B0
:1009F000963988407047000070B5CD0F4A00090352
:100A00000123090B1B0519430B4BED070024520D65
:100A10009A4201DA002070BD074B34339A4203DC5E
:100A20009A1A00F0B3F802E00449511888402C43A8
:100A3000F1D0404270BD0000FF030000CDFBFFFF7E
:100A40004A0009030123090B1B051943094B10B583
:100A5000520D9A4201DA002010BD064B34339A42FF
:100A600003DC9A1A00F092F810BD0349511888402F
:100A700010BD0000FF030000CDFBFFFFC20FD20737
:100A8000400040080BD0C10D0723DB01C91840020C
:100A90000905400A1143C20840071143704700206E
:100AA00001467047CB0FDB07490010B549080246E5
:100AB0000A4307D00A0D07240903E401090B121B9E
:100AC000002A01DC002010BDC900440F0C43C10006
:100AD000E018D205801800F057F910BD70B5044633
:100AE000002903D000202022012310E0002801D09B
:100AF0000020C043C046C0460DE02546D5408D428B
:100B000005D30D469540641B1D469540401915467A
:100B1000521E002DF1DC214670BD000070B500258D
:100B200004462E46002911D0002C01DA012544424A
:100B3000002901DA012649422046FFF7CFFFB542DE
:100B400000D04042002D00D0494270BD002C02DA96
:100B50000121C90702E0002C00DD03490846C04618
:100B6000C046214670BD0000FFFFFF7F10B5202A60
:100B700004DB0146203A9140002010BD9140202323
:100B80009C1A0346E3401943904010BD10B5202A3B
:100B900004DB0846203AD040002110BD0B46D3406C
:100BA000D0402024A21A91400843194610BD10B528
:100BB000202A06DBCB170846203A1041C1170B4309
:100BC00006E00B461341D0402024A21A914008436E
:100BD000194610BD3A2800D23038202302469A43E5
:100BE000412A01D310463738884201D30020C04340
:100BF000704700000268137851180160184670476A
:100C000010B5D1600449516104491162002111619C
:100C1000114600F0FFF910BDF50B000801100008A7
:100C20004268002A08D001680B78491C002B03D0C9
:100C3000521E06C0184670470121C160881E7047C9
:100C40004268002A0BD0C3680168002B07D1836873
:100C50008B4204D0491E521C06C000207047002061
:100C6000C04370470FB400B589B00A460DA9009182
:100C700000230C99002ACB60234B0693234B079348
:100C800001D0042300E00023214A0292214A089265
:100C9000019302466B46002000F0E7FB09B008BC58
:100CA00004B01847F0B585B007460020C043019056
:100CB0001E46002015460C460091029104903B46CA
:100CC0006A46314604A8FFF7CDFF04990246601832
:100CD000002D05D0002901D0034600E023462B60FB
:100CE00000290ED0002A02DD0099814209D0001BA4
:100CF000019000943B466A463146029404A8FFF7EF
:100D0000B1FF05B0F0BD0000210C0008410C000847
:100D1000FFFFFF7F01100008F7B5009C0F4600267B
:100D20002578641C002D05D000F066F90068405D50
:100D3000C007F5D12B2D02D02D2D18D0641E3946B9
:100D40002046029A00F0BCFC002F04D03968A14272
:100D500001D1009939607105022400290BDA404263
:100D6000002803DD1AF0F0F80460A007FEBD0120A2
:100D700080020643E3E70028F8DA1AF0E5F8046099
:100D80000048FEBDFFFFFF7F002904DA401C490038
:100D900001D140084000704770B40024050C05D113
:100DA0001024000402D1002921D01124050E01D104
:100DB00000020834050F01D10001241D850F01D167
:100DC0008000A41C002801DB4000641C002908D01E
:100DD00020252E1B0D46F540A14000D001212943BE
:100DE000084301061B1B000ADB1D02D5002070BC56
:100DF0007047DB05181880180029F8DA401C4900F4
:100E0000F5D170BC40084000704710B5002B08DADF
:100E10000024401C614192185B411A4301D14008F3
:100E2000400010BDF0B51FB482B005460C0003D0E1
:100E300008461AF071F802E01AF06EF82030024607
:100E4000009021462846FFF791FE049B059A044630
:100E50000F4618431143084314D0184610431BD0C3
:100E6000009840210A1A18460599FFF78FFE05469B
:100E70000E46009A05990498FFF778FE084305D0BE
:100E8000012004E02046394607B0F0BD0020C1171C
:100E900005430E432C43374300990E986305401ACF
:100EA0007905E40A00220C43FD0A0A3002D500202D
:100EB0000146E9E70105101969410C9C0D9D0019D7
:100EC0006941FFF7A2FFDFE7F8B505464800400893
:100ED0000C46284304D06000184A400D904201DDC2
:100EE0002846F8BD15493539884210DC88420BDBAD
:100EF000290D200308432903014305D0E00F1049C1
:100F0000C00741180020F8BD00200146F8BD161AA0
:100F10004020821B28462146FFF728FE0746009105
:100F2000284621463246FFF731FE3A46009BFFF73E
:100F30006CFF3246FFF71AFEF8BD000033040000D4
:100F40000000F03F4A0009030123090B1B05194368
:100F50000A4B10B5520D9A4202DA0020014610BD2C
:100F6000064B34339A4203DC9A1AFFF70FFE10BD8A
:100F7000034BD218FFF7FAFD10BD0000FF0300007D
:100F8000CDFBFFFF10B5002904DB0124E40740423C
:100F90008C412146002B04DB1C460123DB07524217
:100FA000A3418B4200D1824210BD000010B5002940
:100FB00004DB0124E40740428C412146002B04DB82
:100FC0001C460123DB075242A341994200D19042C3
:100FD00010BD0000064C0125064E05E0E36807CC75
:100FE0002B430C3C98471034B442F7D3FFF76CF80E
:100FF000A0E60108C0E6010800487047A8BB010848
:1010000010B50446FFF7F8FF0068005DC007C00F89
:1010100010BD0000F3B58DB000200A9001200B90A8
:10102000002608460C300C46099062690121099897
:101030009047051E2ED0252D2DD0216A88470028E7
:1010400018D06269012109989047216A88470028D1
:10105000F7D1411E62690998904700E0761CA169AA
:101060000D988847216A88470028F7D1E1690D98D3
:101070008847DAE7A1690D9888470746A84201D159
:10108000761CD2E7E1690D9888477F1C02D10A9847
:10109000002877D049E1002762693D463946099822
:1010A00090472A280CD162690121099890470125AF
:1010B00006E00A214F433F18303FEBD41020054390
:1010C0006269012109989047014630390A2903D203
:1010D0009B498F42DEDCECE7E90600D4994F6C288F
:1010E0000AD04C2810D0682824D06A282ED0742822
:1010F0000CD07A280AD00DE0626901210998904746
:101100006C2823D004211CE02020054362690121C2
:1011100009989047A760656065284FD026DC58285D
:1011200039D01ADC452849D012DC252834D0412892
:10113000B0D143E06269012109989047682802D044
:1011400008210D43E6E70120C002DEE70220DCE7CC
:10115000462833D047282CD130E05B2870D0612856
:101160002CD063286CD0642823D161E06F284FD045
:1011700009DC662822D0672820D0692826D06E286E
:1011800017D12EE0CDE070284DD073286FD0752890
:101190004ED078280DD154E0A1690D9888470546B6
:1011A000252800D16CE7E1690D9888476D1C00D1B6
:1011B0006DE7BAE00A224CE00A2252E00120234601
:1011C0006A46C0430D9900F050F9A3E0284640213B
:1011D00008436060A807234601D5002239E00022B9
:1011E0003FE0E80700D020E72068011D216000688B
:1011F000290501D5067018E7290701D5068014E7EF
:10120000A90703D5F117066041600EE706600CE7F9
:101210002846402108436060A807234601D50822DC
:1012200017E008221DE0484928460840606016E0A3
:101230002846402108436060A8072346BCD5B9E78B
:1012400015E02846402108436060A80707D52346DB
:1012500010220120C0430D99C046C0465AE02346E3
:1012600010220120C0430D99FEF7F0FF52E000214B
:101270000C910B460091632802D05B2807D043E015
:10128000E80601D40120A060012000903CE06269E2
:101290000121099890475E2805D101200C90014654
:1012A0006269099890472169002906D10B4601AA75
:1012B0008F00491CD3510829FADB002835D0216959
:1012C00000290ED1C117C90E09184A11930001AAAD
:1012D0009A1849094901411A0120136888400343BB
:1012E000136062690121099890475D28E5D10C9847
:1012F000002808D0002001AB81005A58401CD2437E
:101300005A500828F8DB01AB01202246C0430D9952
:10131000C046C04600280ADA401C06D10B980028B7
:1013200003D00020C0430FB0F0BD0A98FBE7E907E7
:1013300002D10A99491C0A91361800200B9074E6D4
:10134000CCCCCC0CFFFFFF7FF1F7FFFFFFB5087897
:1013500089B01546FF2805D0491C2D2804D000224D
:10136000002407E000240BE00122F9E70A235C4394
:101370000419491C0878FF28F8D1002A00D06442DB
:10138000002004902A7801462D2A01D02B2A0FD163
:101390006D1C2D2A02D00022049209E00122FBE7F5
:1013A00000260A2233466D1CFEF7D2FE3818714122
:1013B0002F78FF2FF4D10C9AA218069202460A4306
:1013C00004D0FF23069A9133DA4205DA0021099806
:1013D0000A4606C00DB0F0BD0024B74AB54D2646FA
:1013E000079200F0C1F9029006980391002801DAF3
:1013F000474200E0074639050020AF4A001C514132
:101400000191009012E0F80707D022462B463046A3
:101410000799FFF753F90646079122462B461046D7
:101420001946FFF74BF904460D467F10002FEAD10D
:101430000698019B0028009A0399029806DAFFF7A4
:10144000A5F93246079BFFF7A1F905E0FFF736F94A
:101450003246079BFFF732F9049A002A02D0012294
:10146000D2075140099A03C2B4E7FFB591B00020FA
:1014700009900025ED432E209E685C681F46019070
:10148000B9696D1C129888470090396A884700280E
:10149000F6D10098401C0AD00D20C0018443002ED4
:1014A00012DD00982B2809D02D280DD103E0002053
:1014B000C04315B0F0BD012080020443B9696D1C22
:1014C00012988847761E009003A9600501D52D204B
:1014D00000E02B206A461073491C0CA80F91029063
:1014E0000AE0B9696D1C12988847009001204002FB
:1014F00004431398761E0560002E02DD0098302804
:10150000EFD001990098884245D18020044308E03B
:101510000998401E09900120400204431399681C59
:101520000860B9696D1C761E1298884700903028B3
:10153000EED030E00199884205D1200603D4802006
:101540000443761E1DE0009819F0D8FD002825D030
:10155000012149020C43009807AA0F990332303841
:10156000761E914208D208700F98401C0F902006FA
:1015700007D50998401E03E0200602D40998401CB4
:101580000990A00502D51399681C0860B9696D1C03
:10159000129888470090002ECCDC59E0002E57DDD1
:1015A0000098652801D0452852D1A00550D50320C8
:1015B00000028443B9696D1C761E1298884700901A
:1015C000002E0CDD2B2804D02D2808D1FF2001305F
:1015D0000443B9696D1C12988847761E0090E00597
:1015E00001D52D2100E02B21029801700298401CAA
:1015F0000290019025E00120400204430EA90298C8
:101600000131761E88420ED20098029930380006C9
:10161000000E087003D10299019881420AD90298FC
:10162000401C029006E0E00501D5244801E0234873
:1016300040420990B9696D1C129888470090139830
:101640000560002E04DD009819F058FD0028D2D165
:10165000F969129888470F99FF200870029903AA28
:10166000087000200A900B900CA90AA8099BFFF7AC
:101670006DFEA00502D40120C0431AE724200442D5
:1016800009D0E00713D138680B9A0A99031D3B6013
:10169000006806C00BE00B990A98FFF703FA0146B1
:1016A000E00704D13868021D3A60006801602846EE
:1016B000FFE60000000014400000F03FF1D8FFFFFB
:1016C000F7B582B0029C00272078641C154601976C
:1016D000302802D0002D15D015E020780127641C99
:1016E000782804D0582802D0002D09D00BE0002D16
:1016F00001D0102D07D1002710252078641C02E0AE
:10170000082500E00A250026009610E00099012730
:1017100069430818020C294680B2714300908E1864
:101720003804864201D3012001902078641C2946A8
:10173000FFF750FA0028E9DA0398002805D0002FB7
:1017400001D0641E00E0029C04600198002806D0CD
:1017500019F0FAFB02210160C81E05B0F0BD009926
:1017600030040843F9E700000EB5054A0292002252
:10177000009213460192FFF755FB03B000BD000035
:101780003304000070B58C180578401C6B075B0FA4
:1017900001D10378401C2A1106D10278401C03E0D5
:1017A00006780E70401C491C5B1EF9D12B0705D42E
:1017B0000023521E0DD40B70491CFAE70378401C1D
:1017C000CB1A921C03E01D780D70491C5B1C521E45
:1017D000F9D5A142D8D3002070BD10B5044600F061
:1017E0000AF8A08861880818E18840182189401803
:1017F000800880B210BD10B5418803888B423CD967
:1018000043800180002219468388994239D81946BD
:10181000C38899423BD81946038999423DD8194655
:10182000438999423FD8002A00D010BD41880388DF
:101830008B423ED943800180002219468388994219
:101840003BD81946C38899423DD819460389994225
:101850003FD8002AE9D1418803888B423FD9438091
:10186000018000221946838899423CD81946C388D2
:1018700099423ED8002AD8D13DE00122838899427E
:10188000C5D9818043800022C3889942C3D9C180D1
:101890008380002203899942C1D90181C38000223B
:1018A00043899942BFD941810381418803888B4292
:1018B000C0D8012283889942C3D981804380002205
:1018C000C3889942C1D9C18083800022038999428B
:1018D000BFD90181C380418803888B42BFD80122D0
:1018E00083889942C2D9818043800022C38899426B
:1018F000C0D9C1808380418802888A420B4602D9C0
:101900004280018013468488A34202D983804480A8
:1019100001E08A4289D9418802888A4285D9428079
:10192000018010BDF0B59DB00C46059019AF0025A3
:1019300010223846294618F099FB38463946224687
:1019400013F058FE01957A57500079780B06DB0F9B
:10195000C6183E704800B9780B06DB0FC01811900E
:1019600078704800F9780B06DB0FC0180F90B8703C
:1019700048001A990B06DB0FC0180E90F87048004B
:1019800079790B06DB0FC0180C9038714800B979D3
:101990000B06DB0FC0180A9078714800F9790B0626
:1019A000DB0FC0180890B87148001B990B06DB0FBD
:1019B000C0180790F8714800797A0B06DB0FC01841
:1019C000099038724800B97A0B06DB0FC0180B90EB
:1019D00078724800F97A0B06DB0FC0180D90B872C8
:1019E00048001C990B06DB0FC0180290F8724800E3
:1019F000797B0B06DB0FC018039038734800BD7B62
:101A00002906C90F4018109078737820C043F97BDD
:101A10004B00002A00D54340FB736A000906C90F3A
:101A20005518BD7345218F00E25976B22146F13138
:101A3000102A069461D1087C464004960E74487CB6
:101A4000119A424011924A74887C0F9A42400F9238
:101A50008A74C87C0E9A42400E92CA74087D0C9A11
:101A600042400C920A75487D0A9A42400A924A7591
:101A7000887D089A424008928A75C87D079A42403C
:101A80000792CA75087E099A424009920A76487EF2
:101A90000B9A42400B924A76887E0D9F47408F7684
:101AA000C87E029E4640CE76087F039C44400C7759
:101AB000487F109A42404A77887F45408D77C87F9B
:101AC0004340CB77149313951292109430460B9A9F
:101AD0000D92099A0B92079A0992069C089A07920E
:101AE0000A9A08920C9A0E9B0C933D4613460F9E41
:101AF000074611980F90049AE9E01490E719A0188E
:101B0000FF220232802484545C000496002E01D50A
:101B10001498444019A81494C4736C001B06DB0F7E
:101B2000E31813938373109E73002C06E40F1B19A4
:101B300012934373039D6B003406E40F1B1910933B
:101B40000373029E73002C06E40F1B190393C372E8
:101B50000D9D6B003406E40F1B19029383720B9EDC
:101B600073002C06E40F1B190D934372099D6B0043
:101B70003406E40F1B190B930372079E73002C06A7
:101B8000E40F1B190993C371089D6B003406E40F21
:101B90001B19079383710A9B5E002C06E40F34190E
:101BA000089444710C9D6E001C06E40F33190A93CF
:101BB00003710E9B5E002C06E40F34190C94C47064
:101BC0000F9D6E001C06E40F33190E938370119B5A
:101BD0005C002D06ED0F64190F944470049C6500A1
:101BE0001C06E40F2C19254604703868401C386028
:101BF0000F28069C019B1BD8201883543868401C72
:101C000038600F2814D8201883543868401C386076
:101C10000F280DD8201883543868401C38600F28CE
:101C200006D8201883543868401C38601028E3D345
:101C3000087C2A4642400A74487C0F9B43400F931D
:101C40004B74887C0E9B43400E938B74C87C0C9D18
:101C500045400C95CD74087D0A9E46400E75487D22
:101C6000089B434008934B75887D079D4540079529
:101C70008D75C87D099D45400995CD75087E0B9DE4
:101C800045400B950D76487E0D9D45400D954D7652
:101C9000887E029B43408B76C87E039F4740CF7669
:101CA000087F109D454010950D77487F129D454057
:101CB00012954D77887F139D454013958D77C87F8A
:101CC000149D45401495CD771D4633460E9E0878E9
:101CD0005040087048780F9A50404870887870409B
:101CE0008870C8780C9A5040C870087958400871BC
:101CF0004879089A504048718879079A504088710D
:101D0000C879099A5040C871087A0B9A50400872F5
:101D1000487A0D9A50404872887A68408872C87A2A
:101D20007840C872087B109A50400873487B129A1A
:101D300050404873887B139A50408873C87B149A2C
:101D40005040C87315AF10263846324618F022F9B5
:101D500038460599224613F04DFC19A80021324659
:101D600018F084F91DB0F0BDB0B50446F13000257F
:101D70001022294618F07AF9452080002550F022DB
:101D80002046294618F072F9B0BD80B50B460246D0
:101D90001021184613F024FE80BDF0B587B013461D
:101DA0000D460646452080003158301800903746D1
:101DB000F137002901965FD0781810301022561A9A
:101DC0009E42344600D31C46A2B22946029318F024
:101DD000E1F8009908680019086002998E4200D362
:101DE000AEE0102800D2ABE03878397C4140397041
:101DF0007878797C41407970B878B97C4140B97085
:101E0000F878F97C4140F9703879397D4140397171
:101E10007879797D41407971B879B97D4140B9715E
:101E2000F879F97D4140F971387A397E414039724B
:101E3000787A797E41407972B87AB97E4140B97238
:101E4000F87AF97E4140F972387B397F4140397325
:101E5000787B797F41407973B87BB97F4140B97312
:101E6000F87BF97F4140F97338463946019A13F0FF
:101E7000C1FB029B1B1B2D19112B56D302933878E3
:101E80002978414039707878697841407970B8781C
:101E9000A9784140B970F878E9784140F97038790B
:101EA0002979414039717879697941407971B879F6
:101EB000A9794140B971F879E9794140F971387AE5
:101EC000297A41403972787A697A41407972B87AD0
:101ED000A97A4140B972F87AE97A4140F972387BBF
:101EE000297B41403973787B697B41407973B87BAA
:101EF000A97B4140B973F87BE97B4140F97303AE9C
:101F0000102430463946224618F044F8304631460F
:101F1000019A13F06FFB38463146224618F03AF822
:101F2000029B103B1035102BA8D8FF2002300199DE
:101F300008189AB229461C4618F02CF8009804603C
:101F400007B0F0BD10B518F0A9FE18F069FE0D48F5
:101F500007F0C8F8002807D00BA4204612F0AEFE08
:101F60000028FAD102F098FE064807F0BBF80028D6
:101F700005D10EA4204612F0A1FE0028FAD118F0D7
:101F80002DFE10BDE81300204572726F723A204892
:101F900043324120554152542062757320496E6985
:101FA00074206661696C7572650D0A000D0A4843FC
:101FB000324120554152542062757320496E697434
:101FC00020737563636573730D0A000070B516485E
:101FD000002101620122154B154CFE25F0260460FC
:101FE00043608660C260016145618161C16104F046
:101FF000E5F8002807D00FA4204612F05FFE002865
:10200000FAD102F049FE084804F0D8F8002805D1BA
:1020100012A4204612F052FE0028FAD102480021F4
:1020200004F0A8F870BDC046300C0020563EA11048
:10203000005400404572726F723A20485954393347
:1020400039204932432062757320496E69742066D5
:1020500061696C7572650D0A000000000D0A48592F
:1020600054393339204932432062757320496E69EF
:102070007420737563636573730D0A0070B50D4842
:102080000021016201220C4B0C4CFE25F02604605D
:1020900043608660C260016145618161C16104F095
:1020A0008DF8002801D002F0F7FDFA48002104F075
:1020B00061F870BDE40B0020563EA11000540040B2
:1020C00080B586B00020059004901A490A68022362
:1020D0001A430A6009681940009103900320029096
:1020E000102001900098E24801A903F06DFF06B0AE
:1020F00080BDC04670B586B0002405940D480168C7
:1021000002221143016000681040009003200490F7
:10211000039401200290102501950098D44E01A946
:10212000304603F051FF30462946224604F013F8AA
:1021300006B070BD2C100240F0B587B018F0A2F8C0
:10214000C24C2078FD21014001292FD106A8E721AA
:10215000017005A8EA49018000F090FFFF26F436DF
:102160007D20C70012F0FCFB0446E64D009780215D
:1021700006AA0123284604F057F9002807D0204674
:1021800012F0F4FBB042F1D9CD48002181700097E4
:10219000DC48802106AA0124234604F045F90028E2
:1021A00031D0C7488078002837D03DE1801E132801
:1021B00000D939E14000C046784480884000874417
:1021C000650033013301890033011300330113002B
:1021D000330133013301330133013301330133015F
:1021E00033013301AD00C600A248007802F024FF9D
:1021F000A148007802F058FF2078092800D013E1A8
:10220000FFF75EFF10E1AE488470BF4812F056FD44
:10221000AB488078002800D006E162059349086841
:102220000392104308600868B84A10400860904C58
:102230004021204603F048FE8021204603F044FE62
:1022400000F03AFF12F08CFB0546B14C0097882154
:1022500005AA0223204604F0E7F8002807D0284604
:1022600012F084FBB042F1D90020954988700097A4
:10227000A748882105AA02252B4604F0D5F8002896
:102280006ED08F4DA878002873D0CDE004AF002623
:102290003E70774C20212046324603F05CFFFFF76A
:1022A000EDFE18F0DDFD7D20C000012500970195B1
:1022B00002907848C42132462B4604F0C5FA18F043
:1022C000CFFD7E4988427ED273A07D494D7012F0C9
:1022D000F5FCA4E0664C202500222046294603F0A8
:1022E0003AFF13F063F913F02BF903F03DF8FF20E8
:1022F000F430401C03F075FD03F036F813F03CF9A0
:1023000013F004F901222046294603F024FF5BA4C0
:10231000204612F0D3FC0028FAD185E002F014FF29
:102320000120400551490A6802430A600A68824355
:102330000A604F4C4021204603F0C6FD8021204614
:1023400003F0C2FDFFF742FE02F0ECFE6CE040A09D
:1023500012F0B4FCFFF7F6FD41A012F0AFFC63E011
:10236000574885706B4812F0A9FC554DA878002895
:102370005AD13E490868039A104308600868634AC6
:102380001040086040213A4C204603F09DFD80211A
:10239000204603F099FD07F0D5FF16F0B1F80021B3
:1023A000FEF7A4FA044607F0B3FF002C04D1032083
:1023B000A870594812F082FCA878002834D15748F8
:1023C00012F07CFC30E00125680528490A680243C8
:1023D0000A600A6882430A604021204603F074FDC7
:1023E0008021204603F070FD02F010FF02F044FF50
:1023F00005200007E90203F0A9FE002807D13048B4
:102400000221417012F07EFA2EA012F057FC02F069
:10241000E1FE02F017FF2A48407800280CD0202166
:102420000122204603F097FE3D48007802F0CCFDE3
:1024300002F0B6FE07B0F0BD16F068FA012802D12E
:102440002E48032541E72C4841E7C0461D040020E3
:10245000444542555420494E4954200D0A0000007D
:1024600046494E20494E4954200D0A00281002408A
:10247000000400501F040020200400200A0D5573A2
:10248000652053656E736F72206973204858373129
:10249000310D0A00E40B00200A0D557365205365C9
:1024A0006E736F72206973204C494441525F4C69CE
:1024B00074655F763348500D0A0000000F27000056
:1024C000AC0200200A0D5573652053656E736F7260
:1024D00020697320756C747261736F6E6963206418
:1024E000697374616E6365206D6561737572656D86
:1024F000656E740D0A000000B4C90108BDCA010868
:10250000F32D0000980B0020F1CA0108FFFFDFFF48
:102510001402002009CB0108E8C8010899C9010884
:102520001E040020F0B5A1B00C46069007F0B2F9E9
:102530000520000707905F4F0594012C74D15EA41D
:10254000204612F0BBFB0028FAD15C4D5C4C5DA626
:102550002888FEF715FA00222346FEF717F90246EF
:1025600030460B4612F0AAFB0028F1D159480078FA
:1025700006281FD0072826D0092848D1564D574C89
:102580002968204612F09AFB0028F9D1544D55A431
:102590002968204612F092FB0028F9D1564C1021F0
:1025A000079803F0D3FD0146204612F087FB002870
:1025B000F5D139E0484D494C2968204612F07EFBA0
:1025C0000028F9D130E00125AC034C4E38462146B5
:1025D00003F0BCFD0146304612F070FB0028F5D137
:1025E00047A4E903384603F0B1FD0146204612F046
:1025F00065FB0028F5D1404C1021079803F0A6FD9B
:102600000146204612F05AFB0028F5D10CE00120CB
:1026100084033A4E3846214603F098FD0146304681
:1026200012F04CFB0028F5D108F090FC2948007806
:102630000328069D2BD00126304601F0C9F8044638
:102640006860059801281CD132492046FEF724F91C
:10265000074631492046FEF73BF9384306D02FA400
:10266000204612F02BFB0028FAD10AE031A468685A
:10267000FEF704FA024620460B4612F01FFB002824
:10268000F5D114480078FD210140012962D12F487D
:102690008178032900D900E24900C046794489883D
:1026A00049008F4403007B00CC001E012848E861EC
:1026B0002862F2E1000400500D0A00008C040020A2
:1026C00000408F404261743A252E336620560D0A31
:1026D000000000001D0400209C040020E0CA010846
:1026E000A0040020504231355F636F756E74323A3A
:1026F00025750D0A0000000089C9010878C9010884
:10270000504231355F7374617475733A25640D0AF4
:102710000000000000005CC20000FA42445331385F
:102720004232305F74656D70313A6E756C6C0D0AB3
:1027300000000000445331384232305F74656D70E0
:10274000313A252E31660D0A00000000AC0200204F
:1027500000CCCC45042805D0142800D1D8E00928A5
:1027600000D09AE1022001F033F80446A8600598F1
:10277000012800D054E1C0492046FEF78DF80746F5
:10278000BE492046FEF7A4F8384300D14DE1BC4CC9
:10279000204612F093FA0028FAD151E101252803CE
:1027A00018900820139013A804F0CEFBF948016894
:1027B000022211430160016811400A910A990168DF
:1027C00011430160016811400A910A996905C268C4
:1027D0000A43C2600E9503200D9000200C90122039
:1027E0000B9040200A900AACEB4E3046214603F095
:1027F000EBFB0E95069D80200A903046214603F0A3
:10280000E3FB0EF00BFB04460EF080FAEC6128624D
:102810000598012800D040E1EB4C286AFEF72EF91C
:1028200006460F46E869FEF729F902460096019729
:1028300020460B4612F042FA0028EED12DE1012588
:10284000280318900820139013A804F07DFBD148AA
:102850000168022211430160016811400A910A993E
:10286000016811430160016811400A910A996905E4
:10287000C2680A43C2600E9503200D9000200C90A0
:1028800012200B9040200A900AACCE4E30462146D2
:1028900003F09AFB0E95069D80200A903046214653
:1028A00003F092FB18F026F9C8480068C849096887
:1028B000E86129620598012800D0EEE0C54C286A3D
:1028C000FEF7DCF806460F46E869FEF7D7F8024641
:1028D0000096019720460B4612F0F0F90028EED141
:1028E000DBE00121017007F02DFD15F009FEFEF778
:1028F00055F8A88407F00CFD0598012800D0CCE01D
:10290000B54CA98C204612F0D9F90028F9D1C4E0C1
:10291000300318900820139013A804F015FB9D486D
:102920000168022211430160016811400A910A996D
:10293000016811430160016811400A910A9971050B
:10294000C2680A43C2600E9603200D9000240C94C6
:1029500012200B9040200A900AAF9A4D2846394623
:1029600003F032FB0E9680200A902846069D3946D9
:1029700003F02AFB02F0E8FBB7020798394622462B
:1029800003F0E9FB3220089003F02BFA079809972F
:102990003946324603F0DFFB089803F022FA8F4FE6
:1029A0003878002809D02E463036304617F0B0FF70
:1029B0001436641C38788442F7D3002407980999A8
:1029C000224603F0C8FB02F0ADFB0598012864D154
:1029D0003878002861D082A6142060432818014668
:1029E000383108913430099008980068FEF746F8AD
:1029F00007460D4609980068FEF740F802460B4668
:102A00000297039500943046214612F057F90028AA
:102A1000EAD1641C714800788442069DDCD33CE016
:102A2000032000F0D5FEE86037E0784CA868FEF798
:102A300025F8024620460B4612F040F90028F5D151
:102A4000032000F0C5FE0746E8605149FDF740FF4E
:102A50000446401E844108493846FDF71DFF002802
:102A600000D12646002E0DD0694C204612F026F9E2
:102A70000028FAD111E0C04600005CC20000FA4212
:102A800060CA0108634CE868FDF7F8FF024620467B
:102A90000B4612F013F90028F5D15F4D2888002865
:102AA000484808D020210024224603F054FB2888FF
:102AB000642800D3B4E159480078092805D80121D9
:102AC00081406122D200114256D1FFF713FB01244D
:102AD000204606F0E9FD0AAE30800A27384603F0AA
:102AE00080F9204606F0E0FD7080384603F079F961
:102AF000204606F0D9FDB080384603F072F9204632
:102B000006F0D2FDF080384603F06BF9204606F05F
:102B1000CBFD3081384603F064F9204606F0C4FD51
:102B200070813846274F03F05CF910213846224661
:102B300003F011FB3046FEF750FE3949098848433F
:102B40003849FDF7CBFFFDF7F5FE069D2861059896
:102B500001280FD1344C354E2869FDF78FFF002234
:102B60002346FDF713FE024630460B4612F0A6F848
:102B70000028F1D12948007801263703801E132848
:102B8000069D00D928E205A14000085A400087446C
:102B90000000FA422C1002400004005055014F0082
:102BA0002302A301230223024F0023022302230254
:102BB00023022302230223022302230223022302ED
:102BC0002302B901000400500ACA010804020020CF
:102BD000080200202BCA010857C901086001002023
:102BE0004859543933395F74656D705F25643A20F4
:102BF000252E31662C094859543933395F68756D73
:102C00005F25643A20252E31660D0A00E0C90108CF
:102C100075CA0108F5C901088C1600201D040020A2
:102C20008C040020FF0F000000408F4001C9010804
:102C3000FFF760FA01263046089606F035FD0AAC2B
:102C4000208009970A27384603F0CBF8304606F073
:102C50002BFD6080384603F0C4F8304606F024FDB2
:102C6000A080384603F0BDF8304606F01DFDE08038
:102C7000384603F0B6F8304606F016FD2081384697
:102C800003F0AFF8304606F00FFD6081384603F0E0
:102C9000A8F82046FEF7A1FDE54909884843E84920
:102CA000FDF71CFFFDF746FE28613220049003F07B
:102CB00098F8E84E304606F0F7FCA081384603F05D
:102CC00090F8304606F0F0FCE081384603F089F8D1
:102CD000304606F0E9FC2082384603F082F83046A0
:102CE00006F0E2FC6082384603F07BF8304606F0DE
:102CF000DBFCA082384603F074F8304606F0D4FCC2
:102D0000E082384603F06DF820460C30FEF765FD92
:102D1000C74909884843CA49FDF7E0FEFDF70AFEA6
:102D20006861049803F05DF8CB4E304606F0BCFCB9
:102D30002083384603F055F8304606F0B5FC608332
:102D4000384603F04EF8304606F0AEFCA083384615
:102D500003F047F8304606F0A7FCE083384603F05E
:102D600040F8304606F0A0FC2084384603F039F8DD
:102D7000304606F099FC60843846AC4E099F03F05B
:102D800030F818342046FEF728FDA9490988484341
:102D9000AB49FDF7A3FEFDF7CDFDA861102130463C
:102DA000089A03F0D8F90598012800D002E1A14C57
:102DB000A44E2869FDF762FE00222346FDF7E6FCDB
:102DC000024630460B4611F079FF0028F1D1994CAC
:102DD000A24E6869FDF752FE00222346FDF7D6FC9D
:102DE000024630460B4611F069FF0028F1D1914CA4
:102DF0009B4EA869FDF742FE00222346FDF7C6FC64
:102E0000024630460B4611F059FF0028F1D1E3E0AD
:102E100028886421FDF762FE641C844200D34AE6E0
:102E2000642002F0DEFF63212046FDF757FE002CF0
:102E3000EED00029ECD108F089F8E9E77F4C607802
:102E4000032879D0022800D18DE0012800D0BEE00F
:102E500018970820139013A804F076F876480168B4
:102E6000022211430160016811401C911C99016804
:102E700011430160016811401C911C997105C268E1
:102E80000A43C260209603201F9000201E9012204B
:102E90001D9040201C901CAC644D2846214603F038
:102EA00093F8209680201C902846214603F08CF849
:102EB00008F09AFF08F006FF069DE88405980128AF
:102EC00078D1684E6B4CE88C7043C10C204611F0F1
:102ED000F5FE0028F7D17FE012F068FB12F030FB1E
:102EE00002F048FAE86212F047FB12F00FFB059877
:102EF00001285FD1564CE96A204611F0DFFE002818
:102F0000F9D169E009972F46F8374C4E304610301A
:102F100017F0F8F94C480068F8604C490C687C6080
:102F20003169FDF745FA01462046FDF79AFA386007
:102F3000B069B860099F4FE0201D17F059FA60682A
:102F4000A168069DE88429850598012832D1454E5F
:102F5000454CE88C7043C10C2A8D204611F0AEFE22
:102F60000028F6D138E002F051F902F085F910247A
:102F7000204603F019FE12F0C1F9069DE8842046B0
:102F800003F008FE02F026F902F05CF9059801282A
:102F900010D1364C364EE88CFDF7F2FC0022234669
:102FA000FDF7F4FB024630460B4611F087FE002881
:102FB000F1D111E002F0F4F8052002F012FF0798B9
:102FC000394603F0C3F8287002F0D0F826E000205C
:102FD000C043069D2885E88402F0E2F8052002F04F
:102FE00000FF0798394603F0B1F8287002F0BEF8E8
:102FF0000598012812D1204C0C4E2978204611F05A
:103000005DFE0028F9D120210122304603F0A3F80B
:103010007D20800002F0E5FE21B0F0BD20210122DC
:10302000024803F098F821B0F0BDC04600040050FB
:103030008C04002000408F402C100240AC02002085
:10304000FF0F000001C901087016002010160020B3
:103050004CCA0108020000041000001012C9010847
:1030600023C90108CDCC000034C901080000244068
:10307000A6CA01088ACA010867C9010870B50D48C7
:103080000021016201221C4B1C4CFE25F02604602D
:1030900043608660C260016145618161C16103F086
:1030A0008DF8002801D001F0F7FD0248002103F05F
:1030B00061F870BD980B002070B50E4C0020606365
:1030C00001210D4A0D4BFE25F0266361A261E661E8
:1030D00021626062A562E06220631434204603F03E
:1030E0006DF8002801D001F0D7FD0021204603F043
:1030F00041F870BD00020020563EA110005400406F
:10310000007885494A68854B9854012008707047BB
:1031100080B5034817F086FE7F480021017080BD0E
:1031200001310008F0B583B07B480178012911D145
:10313000002303704168794D6A5C0D2A0CD00A2A7D
:103140000AD0012A33D143608C4C204611F0B6FDE1
:103150000028FAD103B0F0BD0029FBD06B544360C6
:1031600028780124412800D0C4E06878542800D091
:10317000C0E0A878002828D03F282BD1684C2046F2
:1031800011F09CFD0028FAD10025664E18206843F6
:1031900030184469204611F091FD0028FAD16D1CC9
:1031A0005A2DF3D10024092C00D3A5E0A5E07F29F6
:1031B00007D14360724C204611F080FD0028FAD1FF
:1031C000C8E7491C416003B0F0BD1C46092C00D380
:1031D00092E092E001940093524E5A24A81C02906F
:1031E000A0CE029829463A46083EFDF702F800288C
:1031F00007D0641E1836002CF2D1019C092C7BD21A
:103200007BE04648C0198178801C00290ED03D29FA
:1032100012D03F29019C6DD17569284611F04EFDF1
:103220000028FAD1009C092C66D266E031698847F3
:103230000446092C60D260E0411C42783F2A02D14A
:103240008078002852D0F2680846904704463649F4
:103250002846FCF7C0FF00281FD034492846FCF759
:10326000BAFF002819D032492846FCF7B4FF0028DD
:1032700013D030492846FCF7AEFF00280DD02E4968
:103280002846FCF7A8FF002807D02C492846FCF761
:10329000A2FF002801D0012600E000262849284688
:1032A000FCF799FF002825D026492846FCF793FF14
:1032B00000281FD024492846FCF78DFF002819D08C
:1032C00022492846FCF787FF002813D020492846CA
:1032D000FCF781FF00280DD0002C0BD1002E15D05B
:1032E00001F07CF9009C092C06D206E0B268084681
:1032F00090470446092C00D30924A00015A10C58BE
:10330000204611F0DBFC0028FAD123E701F0E6FAB1
:10331000009C092CF0D2F0E7EC03002054150020AB
:10332000A8D90108D4BB01087FE4010885E401089D
:10333000C2E501081BE50108CAE50108D3E501085B
:1033400024E401084AE40108A8E5010891E5010820
:103350005DE40108E6D701083AD8010827D801083A
:103360003ED901084CE2010857D8010888D8010865
:1033700056D7010847D8010876DC010847D801086C
:1033800088D80108F0B587B006920E460446056954
:103390004169008900290493039111D000280FD1BD
:1033A00082CC4A5D6B1C083CDF1B00D33B46C95CEA
:1033B00009028918891C0591049B002805D014E096
:1033C000002905900ED000280FD1E1688D4210D25F
:1033D0000095414241414D00069829181F464F4330
:1033E00000201BE005910028EFD00690E1688D4297
:1033F000EED34142414149000191069809181F4608
:103400004F43059880B228186268101A874203D289
:1034100002910021069B1CE00095019D0291FDF7A1
:103420005DFBC8B20195A84209D9217F8A07069B96
:10343000009D0DD4012211404942014009E00021C4
:10344000069B039A009D0020002B06D107B0F0BD1B
:103450000199039A0020002BF8D0BA18521861681D
:103460008A42F3D8049F002F00D1B8E0180A0090D8
:103470000021069313E07119226810183A46FCF7F0
:103480007FFE069B6069C019039060612946049F16
:10349000A069401CA061F6187F1E00D19DE0059830
:1034A00080B2226910186268831A00D3184620611E
:1034B0002389002B13D12268069B1354401C626899
:1034C000821A00D310462268009B13546269921C32
:1034D00003926261401C6268831A00D31846069BFF
:1034E000121A9A42154600D31D4693420ED9227FE6
:1034F000002A0BD0002DCBD0D307049718D1920708
:10350000069B1FD42F460D46039A5CE00497216862
:10351000081831462A46FCF733FE069B60694219BB
:1035200062615F1B002002990591002FA3D152E038
:1035300021890029069B28D0039A521900201F4692
:1035400005463FE02189002952D121684118891E92
:103550000D7021684118491E2A0A0A70216808184E
:1035600031462A46FCF70CFE069B606940196061F3
:10357000A069401CA0615F1B20680770380A2168A1
:1035800048706069821C02201CE021684118891E75
:10359000FF220A7021684018401E027060694219BB
:1035A00062612089002803D000201F4605460AE0FA
:1035B000206803702068009941706069821C0025B2
:1035C00002201F466261002121610199791805914D
:1035D000002F00D04FE7039258E7616825690198F2
:1035E0002818411A00D308462168081807B0F0BD12
:1035F000002007B0F0BD10B500240160C460046174
:10360000446184610299017703814260581E8341BD
:103610000220084040081840404210BDF0B581B07B
:10362000048900220A804369002B58D00289002AAD
:103630000AD1C66884C8955D761C0838F71B00D38C
:103640003E46925D120252190A80057F03262E40E3
:10365000012E18D1454DAA4202D10589002D14D062
:10366000C5680669B54222D90689002E1FD0476871
:1036700000977F1BB7421AD20022C260009A9A1AA2
:103680005319324611E0C56811E0C2680025C560D3
:1036900045685B1B9B1843610122012D00D8521B1A
:1036A0000568AA5C12022D7852190A800025614231
:1036B000614149008F18DC1B44616D184668AC1BE2
:1036C000294600D321460468BB4204D0AA18931BA4
:1036D00000D31A46C26062188169491E8161104692
:1036E00001B0F0BDF0B5038900220A804469002CC6
:1036F00039D00489C268002C09D190C8A55C561C39
:103700000838F71B00D33E46A45D240264190C80E0
:10371000057F03262E40012E1CD1144DAC4202D150
:103720000489002C0AD00469A24213D90489002C10
:1037300010D04568AD1AA5420AD30BE044680122B7
:10374000012C00D8121B0468A25C12022478141900
:103750000C800022002B00D1921C4168511A00D32A
:103760000A46006882181046F0BDC046FFFF000000
:10377000B0B586B00020059004900390032002901D
:10378000400301900F4C20680125284320602068E9
:103790002840009000980520000701A902F014FCC1
:1037A0002068A8432060AD05A0682843A06002F00F
:1037B00085F802F08FF802F087F8A068A843A060AF
:1037C00006B0B0BD2C10024080B517F005FB80BDDF
:1037D000F0B589B00446401E002601210191C5B212
:1037E000029637460395022D02D8204600F06AFB68
:1037F000204600F04FFA002802D07F1C0597BDE15B
:1038000004960597204600F05DFB204600F042FA42
:10381000CC273846214600F0B1FB4420214600F079
:10382000ADFBEF4802F0DDFA204600F04BFB2046EE
:1038300000F030FA3846214600F0A0FBBE202146B9
:1038400000F09CFB204600F0C3FA0746204600F03B
:10385000BFFA45003D43204600F0BAFA87002F43E7
:10386000204600F0B5FAC5003D43204600F0B0FA0E
:1038700007012F43204600F0ABFA45013D432046A7
:1038800000F0A6FA87012F43204600F0A1FAC001FC
:10389000384306AE3070204600F09AFA05462046BE
:1038A00000F096FA47002F43204600F091FA850079
:1038B0003D43204600F08CFAC7002F43204600F01D
:1038C00087FA05013D43204600F082FA47012F4365
:1038D000204600F07DFA85013D43204600F078FA4D
:1038E000C00128437070204600F072FA0546204659
:1038F00000F06EFA47002F43204600F069FA850079
:103900003D43204600F064FAC7002F43204600F0F4
:103910005FFA05013D43204600F05AFA47012F4364
:10392000204600F055FA85013D43204600F050FA4C
:10393000C0012843B070204600F04AFA05462046F0
:1039400000F046FA47002F43204600F041FA850078
:103950003D43204600F03CFAC7002F43204600F0CC
:1039600037FA05013D43204600F032FA47012F4364
:10397000204600F02DFA85013D43204600F028FA4C
:10398000C0012843F070204600F022FA0546204688
:1039900000F01EFA47002F43204600F019FA850078
:1039A0003D43204600F014FAC7002F43204600F0A4
:1039B0000FFA05013D43204600F00AFA47012F4364
:1039C000204600F005FA85013D43204600F000FA4C
:1039D000C00128433071204600F0FAF90546204620
:1039E00000F0F6F947002F43204600F0F1F985007A
:1039F0003D43204600F0ECF9C7002F43204600F07D
:103A0000E7F905013D43204600F0E2F947012F4365
:103A1000204600F0DDF985013D43204600F0D8F94D
:103A2000C00128437071204600F0D2F905462046B7
:103A300000F0CEF947002F43204600F0C9F9850079
:103A40003D43204600F0C4F9C7002F43204600F054
:103A5000BFF905013D43204600F0BAF947012F4365
:103A6000204600F0B5F985013D43204600F0B0F94D
:103A7000C0012843B071204600F0AAF9054620464F
:103A800000F0A6F947002F43204600F0A1F9850079
:103A90003D43204600F09CF9C7002F43204600F02C
:103AA00097F905013D43204600F092F947012F4365
:103AB000204600F08DF985013D43204600F088F94D
:103AC000C0012843F071204600F082F905462046E7
:103AD00000F07EF947002F43204600F079F9850079
:103AE0003D43204600F074F9C7002F43204600F004
:103AF0006FF905013D43204600F06AF947012F4365
:103B0000204600F065F985013D43204600F060F94C
:103B1000C10129433172CDB20821304614F060FF53
:103B2000A8420AD1002106A8405E0028009107D4CF
:103B3000FCF712FF00222B4B09E0039D049E1DE0C1
:103B400029498143481CFCF707FF0022274BFCF75B
:103B5000B5FD029A049E521C0292D2B2921E5542A8
:103B60005541FCF79FFF07462149FCF7BFFE00289F
:103B7000019800D028460028039D2DD1012E04D89D
:103B8000761C059F032F00D22DE6019D2E46184F6F
:103B9000204600F035F817493846FCF799FE0446F0
:103BA000401E844114493846FCF776FE411E884188
:103BB000002E294606D0002907D0002D08D138460E
:103BC00009B0F0BD01460029F7D12546002DF6D0F9
:103BD0000A4F384609B0F0BD019D009ED8E7C046A7
:103BE000020300000000B03FFFFF00000000B0BF74
:103BF0000000AA420000FA4200005CC233CB4C45F0
:103C000080B586B0032818D002282CD0012828D1EE
:103C1000D8480168022211430160006810400090FA
:103C20000020039003200290082001900098D248C1
:103C300001A902F0C9F906B080BDCE480168012291
:103C400011430160006810400090002003900320A1
:103C500002909002019000980520000701A902F04F
:103C6000B3F906B080BDC348016801221143016069
:103C70000068104000900020039003200290500242
:103C8000019000980520000701A902F09DF906B0F7
:103C900080BDC046F0B587B0032831D0022860D07F
:103CA000012800D08EE0B348016802221143016070
:103CB00000681040019000250495039508200290AB
:103CC0000198AD4C02A9204602F07EF92E4608214B
:103CD000204602F03BFA002802D0751CC82EF5D30E
:103CE000C72E72D8002005460821204602F02EFA81
:103CF000002802D1681CF02DF5D3EF2D62D964E0C5
:103D00009C48016801221143016000681040019045
:103D100000270497039700929502029501980520C9
:103D2000060702A9304602F04FF93C4630462946C4
:103D300002F00CFA002802D0671CC82CF5D3C72C5F
:103D4000009830D8002004463046294602F0FEF99B
:103D5000002802D1601CF02CF5D3EF2C35D80020C0
:103D600021E0F94801680122114301600068104018
:103D70000190002404940394009255020295019846
:103D80000520060702A9304602F01EF927463046F4
:103D9000294602F0DBF9002802D07C1CC82FF5D39D
:103DA000C72F009801D907B0F0BD00200446304667
:103DB000294602F0CBF9002802D1601CF02CF5D383
:103DC000EF2C02D8002007B0F0BD012007B0F0BDF5
:103DD000F0B587B0032834D002283FD001282DD178
:103DE00002270597D84D286838432860286838404E
:103DF000019001200390082402940198D34802A95D
:103E000002F0E2F80026D1482146324602F0A3F93A
:103E10002868384328602868384001900496039643
:103E20000294019802A9C94D284602F0CDF828460F
:103E3000214602F08BF9411E48424841C0B207B00A
:103E4000F0BD01270397C049086838430860086837
:103E50003840019002200590BC020BE00127039737
:103E6000B949086838430860086838400190022062
:103E700005907C02029401980520050702A92846B6
:103E800002F0A2F8002628462146324602F063F9E5
:103E9000AD490868384308600868384001900496C6
:103EA00003960294019802A9284602F08DF828464C
:103EB000214602F04BF9411E48424841C0B207B0CA
:103EC000F0BDC04670B586B0032813D0022831D0AB
:103ED00001282DD1022004909B490A6802430A6000
:103EE0000968014000910124029408250195009879
:103EF000964E2FE094480168012421430160006838
:103F000020400090022004900294A50201950098A0
:103F10000520060701A9304602F056F80022304677
:103F2000294602F018F930462946224602F013F9D4
:103F300006B070BD84480168012421430160006817
:103F400020400090022004900294650201950098A0
:103F50000520060701A9304602F036F80022304657
:103F6000294602F0F8F830462946224602F0F3F8D6
:103F700006B070BD2C10024000040050F0B587B0B0
:103F8000032913D0022978D0012974D10220059089
:103F90006D490A6802430A600968014001910124E1
:103FA0000394082502950198684E76E066480168FA
:103FB0000124214301600068204001900220059007
:103FC0000394A502029501980520060702A9304630
:103FD00001F0FAFF0027304629463A4602F0BBF8C6
:103FE00030462946224602F0B6F8304629463A467F
:103FF00002F0B1F830462946224602F0ACF83046CD
:1040000029463A4602F0A7F830462946224602F0F1
:10401000A2F8304629463A4602F09DF83046294635
:10402000224602F098F8304629463A4602F093F8C4
:1040300030462946224602F08EF8304629463A4656
:1040400002F089F830462946224602F084F83046CC
:1040500029463A4602F07FF830462946224602F0C9
:104060007AF8304629463A4602F075F83046294635
:10407000224602F070F807B0F0BD33480168012411
:1040800021430160006820400190022005900394C4
:104090006502029501980520060702A9304601F045
:1040A00093FF0027304629463A4602F054F830463E
:1040B0002946224602F04FF8304629463A4602F099
:1040C0004AF830462946224602F045F8304629464D
:1040D0003A4602F040F830462946224602F03BF8C4
:1040E000304629463A4602F036F8304629462246FE
:1040F00002F031F8304629463A4602F02CF83046B4
:104100002946224602F027F8304629463A4602F070
:1041100022F830462946224602F01DF8304629464C
:104120003A4602F018F830462946224602F013F8C3
:10413000304629463A4602F00EF8304629462246D5
:1041400002F009F807B0F0BD2C1002400004005046
:1041500080B505F055FC80BD70B514494180144907
:104160000988652914D38AB2124B5A43D20C53439F
:10417000DB0C0A246343D31A1B018D080E4E6E43D9
:10418000750C2D021D435443091B2943018070BD4A
:10419000CAB2CD235343DA0A13020A245443091B3B
:1041A0000907090E5918018070BDC04601FF0000C3
:1041B00024040020CDCC00007B140000F0B595B0A5
:1041C000FC4C204600F012FE1090201D00F00EFE68
:1041D0000F902046083000F009FE0E9020460C306B
:1041E00000F004FE0D902046103000F0FFFD0C9012
:1041F0002046143000F0FAFD0B902046183000F0F5
:10420000F5FD0A9020461C3000F0F0FD119020468C
:10421000203000F0EBFD07902046243000F0E6FD52
:1042200006902046283000F0E1FD059020462C3015
:1042300000F0DCFD04902046303000F0D7FD05464C
:104240002046343000F0D2FD06462046383000F0DB
:10425000CDFD074620463C3000F0C8FD09902046C1
:10426000403000F0C3FD0890049B190E3C22D94851
:1042700081541199090E2C22815401463C31CF738F
:104280003A0A8A733A0C4A733A0E0A73CE72320AA9
:104290008A72320C4A72320E0A72CD712A0A8A71FF
:1042A0002A0C4A712A0E0A71CB701A0A8A701A0CEB
:1042B0004A7001462C31059DCD732A0A8A732A0C57
:1042C0004A732A0E0A73069DCD722A0A8A722A0C34
:1042D0004A722A0E0A72079DCD712A0A8A712A0C27
:1042E0004A712A0E0A71119DCD702A0A8A702A0C11
:1042F0004A7001461C310A9DCD732A0A8A732A0C22
:104300004A732A0E0A730B9DCD722A0A8A722A0CEE
:104310004A722A0E0A72011D0C9DCD772A0A8A77ED
:104320002A0C4A772A0E0A7703460D9AC277110A99
:104330008177110C4177110E01770E9901610F9A67
:104340004273110A0173110CC172110E8172109A1D
:104350004272110A0172110CC171110E817108981B
:10436000D876010A9976010C5976000E18760999CB
:10437000D975080A9875080C5875080E18752046E6
:104380005C3000F033FD0546070E781E874120465D
:10439000603000F02BFD06462046643000F026FD1C
:1043A0000D902046683000F021FD069020466C30CC
:1043B00000F01CFD0B902046703000F017FD0A90B5
:1043C0002046743000F012FD09902046783000F04D
:1043D0000DFD089020467C3000F008FD0790204637
:1043E000803000F003FD0C902046843000F0FEFC8D
:1043F00000902046883000F0F9FC059020468C3073
:1044000000F0F4FC01902046903000F0EFFC0290A8
:104410002046943000F0EAFC03902046983000F0EB
:10442000E5FC049020469C3000F0E0FC0F90204614
:10443000A03000F0DBFC10902046A43000F0D6FC49
:104440000E90A834204600F0D1FC119012AC2771D8
:1044500002202070204608F06DF9280C20711620EB
:104460002070204608F066F9280A5821594A50540D
:10447000E8B2411E484248415071154608F0C6FD59
:10448000300E411E8841207107202070204608F020
:1044900051F9FF200704304638404F494018414247
:1044A00041412971300A207100202070204608F017
:1044B00041F9F0B2401E41424141502029542E465C
:1044C0000A2525700D981390204608F033F90698B8
:1044D00020722570204608F02DF9102020700B98CE
:1044E0001390204608F026F9112020700A981390A6
:1044F000204608F01FF912202070099813902046DA
:1045000008F018F91320207008981390204608F03E
:1045100011F90320207007981390204608F00AF93B
:104520004F20009A3254DA480C990160100E411E57
:104530008841D54C6070100C2070100AD749087063
:1045400005982061019A100CD2490880100AD249BE
:1045500008702271029A100ED1490870100CD149CE
:104560000870100AD0490870D04802700399080CEE
:10457000A071080E6071D248018004982946FCF7AA
:10458000ADFAFCF7E2F9CA4908600F99080A2072EF
:104590000F400A46781E8741A770109B180CC74928
:1045A0000870E271C44803800E9A100EC549087065
:1045B00002E0C04604000808100CC3490870100A45
:1045C000C2490870C2480270C2481199018015B0F2
:1045D000F0BDC046380000200000FFFFF0B585B0F8
:1045E00002A80221017007F0CFFF002802D0A548E1
:1045F00010F064FB02A81621017003990C0607F065
:10460000C3FF002802D09F4810F058FB042102A8E5
:104610004156090421435822F54FBA5612020A4363
:1046200079791143984D6A7A9300984CE1500721AB
:104630000170511C697207F0A7FF002802D0914851
:1046400010F03CFB02A800210191017003990906BA
:104650003A791204561807F097FF002802D08948CB
:1046600010F02CFB5020395C02A80279120216438C
:104670000E43697A8A00A6500A260670491C6972A0
:1046800007F082FF002802D07E4810F017FB687AFE
:104690008100039A6250401C6872A87A01280BD1ED
:1046A00002A806700199A97207F06EFF002808D0D1
:1046B000744810F003FB04E002A80B21017007F01E
:1046C00063FF02A8017A6A7A9300E1501021017019
:1046D000511C697207F058FF002802D0694810F099
:1046E000EDFA697A8800039A225002A8112202701A
:1046F000491C697207F048FF002802D0614810F099
:10470000DDFA697A8800039A225002A81222027008
:10471000491C697207F038FF002802D0594810F090
:10472000CDFA697A8800039A225002A813220270F7
:10473000491C697207F028FF002802D0514810F088
:10474000BDFA697A8800039A225002A803220270F7
:10475000491C697207F018FF002802D0494810F080
:10476000ADFA6E7AB0000399215049480068711C77
:10477000C9B2890060502869F11CC9B28900605033
:104780004448008800044449097809020818297936
:104790004018311DC9B2890060504F20385C6978DB
:1047A00009062A78120451183C4A12781202891814
:1047B0000818B11CC9B28900605039480078000659
:1047C0003849097809040818374909780902401856
:1047D000364909784018711DC9B2890060503448C3
:1047E00000683449FBF73DFEFCF7F1F8F11DC9B252
:1047F0008900605030480088304909780904081859
:1048000031460931C9B28900605068790006A9793A
:10481000090408182A4909884018B11DC9B289003D
:104820006050A8780004297A09020818E97940182C
:1048300031460831C9B2890060502248007800062C
:104840002149097809040818204909780902401803
:104850001F490978401831460A31C9B289006050B1
:1048600030460B30C0B280001A49098821500C36FE
:104870006E72F2B21848214600F0FEF80198687294
:1048800005B0F0BDE6E5010818040020A4160020DC
:104890000800002004000020790400200C160020ED
:1048A000E0030020E1030020E2030020E3030020F6
:1048B0003001002000002041880400207A040020FC
:1048C0008C1600207E0400207D040020800400203F
:1048D0007F0400208A04002060000808B0B5444A24
:1048E0001369444C2078811CC9B28D0042494B5158
:1048F000D3691BBAC51CEDB2AD004B51136A1BBA8C
:10490000051DEDB2AD004B5193791B06D5792D04F1
:10491000EB18157A2D025B19557A5B1985004B51FE
:10492000937A1B06D57A2D04EB18157B2D025B19A3
:10493000557B5B19451CEDB2AD004B51431DDBB2FD
:104940009B00556A2DBACD50831DDBB29B00956A42
:104950002DBACD50C31DDBB29B00D56A2DBACD5008
:1049600003460833DBB29B00156B2DBACD500346CE
:104970000933DBB29B00556B2DBACD5003460A3389
:10498000DBB29B00956B2DBACD5003460B33DBB2E7
:104990009B00D56B2DBACD5003460C33DBB29B0088
:1049A000156C2DBACD5003460D33DBB29B00556C10
:1049B0002DBACD5003460E33DBB29B00956C2DBA59
:1049C000CD5003460F33DBB29B0055692DBACD5055
:1049D00003461033DBB29B00926912BACA50113001
:1049E0002070C2B2054800F047F800202070B0BD2A
:1049F000380000206D16002024170020040008084D
:104A0000F0B581B0EFF3108672B601F049FA0D4FA0
:104A1000184C3D4603E03846783085420BD22D1DB8
:104A2000284601F0E7F90028F5D086F310882046E3
:104A300010F044F9EFE701F0EFF986F3108801B0C8
:104A4000F0BDC0465C000808B0B50446EFF3108521
:104A500072B601F025FA204601F0CCF9002804D006
:104A600085F31088034810F029F901F0D5F985F392
:104A70001088B0BDC0C80108F0B581B014460D461D
:104A80000646EFF3108772B601F00AFA002C0BD03D
:104A90002A680220314601F0C9F900280AD12D1DEB
:104AA000641E361D002CF3D101F0B6F987F310888F
:104AB00001B0F0BD87F3108804A010F0FFF801F0FA
:104AC000ABF987F3108801B0F0BDC0466572726F14
:104AD0007220696E20454550524F4D2057726974BF
:104AE00065206572726F720D0000000080B50120B4
:104AF00001F05EFA022001F05BFA80BD80B504206F
:104B000001F056FA082001F053FA80BDF0B581B0EB
:104B1000524D28680126C0061FD5514801784842E9
:104B20004841504909780029314600D00146002902
:104B30000FD14D480078092801D0072809D14B48EA
:104B40000121016005200007102101F0FFFA48490A
:104B500008701020286001F027FA202001F028FAC0
:104B6000402001F025FA802001F022FA01273802C6
:104B700001F01EFA780201F01BFAB80201F018FAEF
:104B8000F80201F015FA380301F012FA780301F087
:104B90000FFA2868400404D42868000432D401B015
:104BA000F0BD2F480078414241413248007800284A
:104BB000324600D00A46BC03002A1CD12A49097893
:104BC000092901D006290ED1FE221040022806D163
:104BD0002948076029480168491C01600BE0062943
:104BE00009D0092907D0244807602548214601F04B
:104BF000ADFA244908702C60204601F0D5F92868E8
:104C00000004CCD516480078414241411E48007846
:104C1000002800D00E46FC03002E18D11249097856
:104C200009290AD0072912D11848076014482146DB
:104C300001F08CFA1749087009E0FE2108400228AB
:104C400005D11248076012480168491C01602C60B8
:104C5000204601F0A9F901B0F0BDC046140401409E
:104C600069040020200400201D0400209804002076
:104C7000620400201E040020900400209C040020F8
:104C800000040050600400201F0400209404002051
:104C9000A004002061040020FEE7000070B501229E
:104CA00051480168C90504D4002103689B0509D453
:104CB0000EE01102274B5C69022525435D61036804
:104CC0009B0505D55302234C65691543656119435E
:104CD00003685B050DD403681B0514D403689B04AB
:104CE0001BD403689B0322D40368DB0328D4016030
:104CF00070BD9302174C656908262E4366611943FF
:104D000003681B05EAD5D302124C656904262E43BD
:104D10006661194303689B04E3D553030D4C656931
:104D200010262E436661194303689B03DCD5094BAB
:104D30005C6920252C435C6129430368DB03D6D5DD
:104D40001204044B5C69402525435D6111430160F9
:104D500070BDC04674160020F0B581B0054601F064
:104D600003FA0646204F3868C00721D1386880070B
:104D700001D5022038603868C00513D43868800532
:104D800010D4386840050DD4386800050AD4386856
:104D9000800407D43868800304D43868C00301D481
:104DA000002402E0FFF77AFF0124204601B0F0BDA5
:104DB0000324002DF9D0681C0FD13868C007D5D066
:104DC0003868C007D2D03868C007CFD03868C0076D
:104DD000F3D1CBE73868C007C8D001F0C5F9801B14
:104DE000A842F7D9E1E7C04618200240006802490E
:104DF000086008687047C046D4150020F0B58FB031
:104E00006F4D2846FFF7F2FF0E90281DFFF7EEFFCB
:104E10000D9028460830FFF7E9FF0C9028460C302B
:104E2000FFF7E4FF0B9028461030FFF7DFFF0A90F2
:104E300028461430FFF7DAFF099028461830FFF7AC
:104E4000D5FF089028461C30FFF7D0FF0390284676
:104E50002030FFF7CBFF069028462430FFF7C6FF2F
:104E6000059028462830FFF7C1FF049028462C30D3
:104E7000FFF7BCFF019028463030FFF7B7FF074629
:104E800028463430FFF7B2FF064628463830FFF791
:104E9000ADFF044628463C30FFF7A8FF0790403599
:104EA0002846FFF7A3FF02900198020E3C234549D4
:104EB000CA54039D2A0E2C23CA540A463C32D4738A
:104EC000230A9373230C5373230E1373D672330A7E
:104ED0009372330C5372330E1372D7713B0A937172
:104EE0003B0C53713B0E1371D070030A9370030C8B
:104EF00053700A462C32049CD473230A9373230CF8
:104F00005373230E1373059CD472230A9372230CDC
:104F10005372230E1372069CD471230A9371230CCF
:104F20005371230E1371D5702B0A93702B0C537091
:104F30000A461C32089CD473230A9373230C5373C0
:104F4000230E1373099CD472230A9372230C537299
:104F5000230E13720A1D0A9CD477230A9377230C1D
:104F60005377230E13770B9BCB771A0A8A771A0C89
:104F70004A771A0E0A770C9A0A610D9B4B731A0A2C
:104F80000A731A0CCA721A0E8A720E9B4B721A0A94
:104F90000A721A0CCA711A0E8A710298C876020A2D
:104FA0008A76020C4A76000E0876079ACA75100AAD
:104FB0008875100C4875100E08750FB0F0BDC0460E
:104FC000009101083800002010B586B0014600228B
:104FD0000592049203920292B44803680224234388
:104FE0000360006820400090012080030190009839
:104FF000AF48032912D8484B7944097949008F44B6
:10500000010B080A0392029201A900F0DDFF06B02D
:1050100010BD434B00E0414B0392029301A900F005
:10502000D3FF072402210022204601F0C7FD2046BD
:1050300001F0BAFD06B010BD10B586B001460022E1
:105040000592049203920292984803680224234333
:1050500003600068204000900120C0030190009888
:105060009348032912D82C4B7944097949008F447D
:10507000010B080A0392029201A900F0A5FF06B0F5
:1050800010BD274B00E0254B0392029301A900F0CD
:105090009BFF072402210022204601F08FFD2046BD
:1050A00001F082FD06B010BD10B586B001460022A9
:1050B00005920492039202927C48036801242343E0
:1050C00003600068204000901020019000980520A7
:1050D0000007032912D8104B7944097949008F44FD
:1050E000010B080A0392029201A900F06DFF06B0BD
:1050F00010BD0B4B00E0094B0392029301A900F095
:1051000063FF072402210022204601F057FD2046BC
:1051100001F04AFD06B010BD000031100000111072
:105120000000211080B586B0002005900490039007
:10513000032002900120810201910520000701AAAD
:1051400004F006FB06B080BD80B586B00320049055
:105150000120039002900021059181020191052018
:10516000000701AA04F0F4FA06B080BD80B586B04D
:105170000020059004904D490A6801231A430A60F3
:1051800009681940009103900320029019030191CE
:1051900000980520000701AA04F0DAFA06B080BDE5
:1051A00080B586B000200590049040490A6801232C
:1051B0001A430A6009681940009102210391029084
:1051C0001903019100980520000701AA04F0C0FA14
:1051D00006B080BD80B586B00020059004903349AC
:1051E0000A6802231A430A60096819400091039073
:1051F000032002900120C0020190009805200007C2
:1052000001A900F0E1FE06B080BDC04680B586B0C1
:105210000020059025490A6802231A430A6009689C
:105220001940009103210491029001200390C102D2
:10523000019100980520000701AA04F089FA06B040
:1052400080BDC04680B586B0002005900490174907
:105250000A6801231A430A60096819400091039003
:1052600003200290180301900098114801A900F052
:10527000ABFE06B080BDC04680B586B0002005906C
:1052800001210291094A13680B43136012680A4016
:1052900000920322049203900903019100980448AC
:1052A00001AA04F055FA06B080BDC0462C10024099
:1052B00000040050F0B593B001AC201D3421FAF782
:1052C00078FF0127069708200190204602F062F837
:1052D000002801D0FFF7E0FC204E0025204821499E
:1052E000F16135627562B062F56234461C34204665
:1052F00003F084FB002801D0FFF7CEFC14212046E8
:1053000003F00EFA12950C20119010970F950FA92B
:1053100020462A4603F09EFA002801D0FFF7BCFC85
:105320000021204603F0D4FB002801D0FFF7B4FC95
:10533000B068022808D0B068022805D0B0680228FA
:1053400002D0B0680228F3D10021204603F0F2FB1E
:10535000204603F03FFB706813B0F0BD68010020E9
:10536000FFFF00000008014080B504F081FE0B49FA
:10537000486080BD80B504F07BFE0849086049683C
:10538000884201D1002080BD401AFBF7D3FA0449BE
:105390000968FBF7A3F8FBF701FB80BDA40200201E
:1053A00030010020F0B581B004465420205C012873
:1053B00003D10225284601B0F0BD23465433012510
:1053C0001D702068826803210A40012A02D1026808
:1053D000D2072FD1009381225200A36D93439A1CD0
:1053E000A265C768C2688A43C260EA07836813433C
:1053F00083600F4000F0B8FE0646206881680029EF
:105400000CD500F0B1FE801B0B28F6D3A06D102147
:10541000014302208143A165009B0FE0C16839432D
:10542000C160A06D0121014302208143A1650025D7
:10543000009B03E0A06D20210143A16500201870AE
:10544000284601B0F0BD000070B582B05422825CE5
:10545000012A02D1022002B070BD04465434026811
:1054600093685B0718D40E6849682D4830409C4DFE
:105470002C4B994219D1916A81439162700304D5F2
:105480000120C005296881432960B00319D5012096
:1054900081052868884313E0816D20220A438265D4
:1054A00001200021217002B070BD916A0143916218
:1054B00070030BD4B00304D501208105286808438C
:1054C000286000200021217002B070BD0120C005BD
:1054D000296801432960F6480068F649FBF7FEFA9F
:1054E0000A214143019101980028E3D00198401E10
:1054F000019001980028DDD00198401E019001988C
:105500000028D7D00198401E019001980028D1D0E2
:105510000198401E019001980028E7D1CAE7C046D3
:10552000FFFF0700011000000068006C70470000DA
:10553000F0B581B0012500283ED00446806D0028DA
:1055400003D0A06DC0060AD52FE0542000212154BD
:10555000E165204600F0C8F8A06DC00625D420689B
:105560008168490721D481214900A26D8A43911C99
:10557000A165816803231940594A012902D10168B4
:10558000C9072FD161680125EE07B14205D0AD07EB
:10559000A94202D09D07A94211D19B0705699D43ED
:1055A000056103690B43036114E054200021215479
:1055B000A06D10210143A165284601B0F0BD03692B
:1055C000AB4303610F239B0415689D43156013686B
:1055D0000B431360C16818239943C160A168C36875
:1055E0000B43C36001214B0615689D431560A36BF7
:1055F0005B0615681D4315608268D20003D40A0754
:105600008368134383600091C268364B1340C360C4
:105610002269921E534253419A00E5681543A269DC
:10562000E669236A5F032F43256B616B6D003D4381
:105630000D4391032943F2030A43C1681143C1603A
:10564000A66A05460C35FF221146C2318E4215D19D
:10565000616A0129009E1AD00369216C012928D1B1
:1056600091008B430361234644330ECB0A431A4314
:10567000016911430161026932431EE02968E76A4A
:105680000F4337432F60616A0129009EE4D1002B4C
:1056900007D0A16D20230B43A36525465C35334617
:1056A00000E033042968194329600369216C01294A
:1056B000D6D0D90702D00269B243026141690722FC
:1056C00091434161E16B42690A4342610025E5650E
:1056D000A06D304302218843A065284601B0F0BD8B
:1056E000082701401902FEFF7047F0B581B00D4652
:1056F00004464069082801D1082704E02068C068F2
:10570000C0073FD10C2700F02FFD0646216808682E
:1057100038421CD001204202A36D1343A365CA681E
:105720001205920F4BD1226A002A48D10A6812074B
:1057300045D58A68520739D4224658324B680C2521
:10574000AB434B60FF2502351368AB4335E0002DBA
:1057500022D0681C0CD108683842DBD10868384276
:10576000D8D108683842D5D108683842F3D0D1E79B
:1057700000F0FAFC801BA8420ED821680868384265
:10578000F6D0C7E7542000212154A06D2021014309
:10579000A165012001B0F0BD542000212154A06D6D
:1057A00004210143A165032001B0F0BDA26D2023B7
:1057B0001343A36522465C32E36D03431360A26981
:1057C0000020002A01D001B0F0BD0C220A6001B017
:1057D000F0BD0000F0B581B0044601688A6802207F
:1057E000520760D45422A25C012A5CD02746543769
:1057F00001263E70E069012844D0886803220240F7
:10580000012A02D10868C0073CD18868274A1042A3
:1058100030D18868012202438A6025480068254902
:10582000FBF75CF900900098002817D00098401E04
:1058300000900098002811D00098401E0090009819
:1058400000280BD00098401E00900098002805D03A
:105850000098401E009000980028E7D100F084FCDA
:10586000054621680868C0070CD100F07DFC401B8C
:105870000B28F6D3A06D10210143A1655C342146AD
:1058800030460DE0A06D0C4A0240012000021018C5
:10589000A0650020E06538701C220A6008310426EB
:1058A0000A6832430A6001B0F0BDC04617000080AC
:1058B0004401002040420F00FEF0FFFF084801684D
:1058C0000122914301607047054801680422914319
:1058D00001607047024801680222914301607047ED
:1058E0000458014070B5014624314A78022A18D183
:1058F000046822680E239A4322602368012293439E
:1059000023601A4BCC4DAC420FDDCC4DAC4215D0D0
:10591000CB4DAC4215D0CB4DAC4215D10124250462
:105920001AE00421C163012070BDC74DAC42154689
:1059300012D0C64DAC4207D110250DE0012425023E
:105940000AE00124250307E01E4668360125B4421B
:1059500001D02D0600E02D051D6000240C704A705A
:10596000816B002900D08847204670BD04000240AA
:10597000F0B581B004460068FA4F3D466C3D296899
:10598000AD4B98420FDDFD4A904218D0F74A904245
:105990001CD0F74A904226D10122D2042646243652
:1059A0000A422ED168E0F34A904216D0F24A904261
:1059B00019D18022264624360A4222D15CE00122F7
:1059C000D202264624360A421BD155E00122D203D8
:1059D000264624360A4214D14EE0082226462436B2
:1059E0000A420ED148E00122B84205D0D20626462E
:1059F00024360A4205D13FE0D205264624360A4223
:105A00003AD00168090737D5026808218A43026045
:105A100098420BDDD949884210D0D449884210D031
:105A2000D349884210D10121C90413E0D14A9042E0
:105A300010D0D149884207D180210BE00121C90251
:105A400008E00121C90305E00121B84201D0C906DF
:105A500000E0C9053A46683A1160E16B01220A4349
:105A6000E2630021317004217170616B002903D061
:105A700020468847704B2068296898420DDDBF4A50
:105A8000904214D0B94A904216D0B94A90421CD1E3
:105A9000012292040A4222D15DE0B64A904210D01F
:105AA000B54A904211D140220A4218D153E0012256
:105AB00092020A4213D14EE0012292030A420ED111
:105AC00049E004220A420AD145E00122B84203D04B
:105AD00092060A4203D13EE092050A423BD0016899
